:020000040800F2
:10000000000002205909000855090008257400085D
:1000100055090008550900085509000800000000AE
:10002000000000000000000000000000550900086A
:10003000550900080000000055090008A9730008D0
:100040005509000855090008550900085509000818
:100050005509000855090008550900085509000808
:100060005509000855090008550900087153000892
:100070007D530008CD3F00088953000895530008C0
:10008000A97000089D480008550900085509000896
:1000900055090008550900085509000855090008C8
:1000A00055090008550900085509000855090008B8
:1000B0008D2D0108992D0108A52D0108D1480008B2
:1000C00055090008DD48000855090008495F000887
:1000D000555F0008DD6E00080D6F0008416F0008D5
:1000E00055090008550900080000000055090008DE
:1000F0005509000855090008550900085509000868
:100100005509000855090008B12D0108615F000874
:10011000756F0008A96F000899420008550900088A
:10012000814200088D420008855F0008B95F000821
:10013000DD70000855090008550900085509000838
:1001400000000000000000000000000000000000AF
:10015000550900085509000855090008DD6F000819
:10016000E948000855090008B9730008DD73000864
:1001700055090008017400085509000855090008D0
:100180005509000855090008117000084170000861
:100190006D5F0008795F00085509000855090008DF
:1001A00055090008550900085509000855090008B7
:1001B0009150000855090008550900085509000824
:1001C0005509000855090008550900085509000897
:1001D0005509000855090008550900085509000887
:1001E0005509000855090008550900085509000877
:1001F0005509000855090008550900085509000867
:100200005509000855090008550900085509000856
:100210005509000855090008550900085509000846
:10022000550900085509000855090008000000009C
:10023000550900085509000800000000550900088C
:100240005509000855090008550900085509000816
:100250005509000855090008550900085509000806
:1002600055090008550900085509000855090008F6
:1002700055090008550900087570000800000000C5
:10028000550900085509000855090008000000003C
:08029000000000005509000800
:1002980010B5054C237833B9044B13B10448AFF3B8
:1002A80000800123237010BDE0030024000000003B
:1002B800003A010808B5034B1BB103490348AFF3E3
:1002C800008008BD00000000E4030024003A010893
:1002D80081F0004102E000BF83F0004330B54FEAEF
:1002E80041044FEA430594EA050F08BF90EA020F5C
:1002F8001FBF54EA000C55EA020C7FEA645C7FEAEF
:10030800655C00F0E2804FEA5454D4EB5555B8BF11
:100318006D420CDD2C4480EA020281EA030382EA82
:10032800000083EA010180EA020281EA0303362D14
:1003380088BF30BD11F0004F4FEA01314FF4801CE7
:100348004CEA113102D0404261EB410113F0004FF9
:100358004FEA03334CEA133302D0524263EB4303B0
:1003680094EA050F00F0A780A4F10104D5F1200E4E
:100378000DDB02FA0EFC22FA05F2801841F10001A9
:1003880003FA0EF2801843FA05F359410EE0A5F17D
:1003980020050EF1200E012A03FA0EFC28BF4CF0AE
:1003A800020C43FA05F3C01851EBE37101F0004564
:1003B80007D54FF0000EDCF1000C7EEB00006EEB71
:1003C8000101B1F5801F1BD3B1F5001F0CD34908FB
:1003D8005FEA30004FEA3C0C04F101044FEA445252
:1003E80012F5800F80F09A80BCF1004F08BF5FEAD9
:1003F800500C50F1000041EB045141EA050130BDB9
:100408005FEA4C0C404141EB0101013C28BFB1F5CA
:10041800801FE9D291F0000F04BF01460020B1FA15
:1004280081F308BF2033A3F10B03B3F120020CDAE8
:100438000C3208DD02F1140CC2F10C0201FA0CF0C6
:1004480021FA02F10CE002F11402D8BFC2F1200C2B
:1004580001FA02F120FA0CFCDCBF41EA0C019040E1
:10046800E41AA2BF01EB0451294330BD6FEA04042A
:100478001F3C1CDA0C340EDC04F11404C4F1200215
:1004880020FA04F001FA02F340EA030021FA04F327
:1004980045EA030130BDC4F10C04C4F1200220FA7E
:1004A80002F001FA04F340EA0300294630BD21FABC
:1004B80004F0294630BD94F0000F83F4801306BF82
:1004C80081F480110134013D4EE77FEA645C18BF76
:1004D8007FEA655C29D094EA050F08BF90EA020F0D
:1004E80005D054EA000C04BF1946104630BD91EA05
:1004F800030F1EBF0021002030BD5FEA545C05D108
:100508004000494128BF41F0004130BD14F5800446
:100518003CBF01F5801130BD01F0004545F0FE41BA
:1005280041F470014FF0000030BD7FEA645C1ABFEF
:10053800194610467FEA655C1CBF0B46024650EA26
:10054800013406BF52EA033591EA030F41F4002152
:1005580030BD00BF90F0000F04BF0021704730B5D8
:100568004FF4806404F132044FF000054FF00001AD
:1005780050E700BF90F0000F04BF0021704730B56E
:100588004FF4806404F1320410F0004548BF404243
:100598004FF000013EE700BF42004FEAE2014FEA98
:1005A80031014FEA02701FBF12F07F4393F07F4F73
:1005B80081F06051704732F07F4208BF704793F076
:1005C8007F4F04BF41F40021704730B54FF4607489
:1005D80001F0004521F000411CE700BF50EA01028C
:1005E80008BF704730B54FF000050AE050EA010235
:1005F80008BF704730B511F0004502D5404261EBA5
:1006080041014FF4806404F132045FEA915C3FF4E5
:10061800D8AE4FF003025FEADC0C18BF03325FEA82
:10062800DC0C18BF033202EBDC02C2F1200300FA33
:1006380003FC20FA02F001FA03FE40EA0E0021FA58
:1006480002F11444BDE600BF53B94AB9002908BFF6
:1006580000281CBF4FF0FF314FF0FF3000F074B995
:10066800ADF1080C6DE904CE00F006F8DDF804E001
:10067800DDE9022304B070472DE9F047089D0446E0
:100688008E46002B4DD18A42944669D9B2FA82F23D
:1006980052B101FA02F3C2F1200120FA01F10CFA79
:1006A80002FC41EA030E94404FEA1C48210CBEFBB1
:1006B800F8F61FFA8CF708FB16E341EA034306FB3A
:1006C80007F199420AD91CEB030306F1FF3080F0C9
:1006D8001F81994240F21C81023E63445B1AA4B216
:1006E800B3FBF8F008FB103344EA034400FB07F7B8
:1006F800A7420AD91CEB040400F1FF3380F00A81F9
:10070800A74240F207816444023840EA0640E41BED
:1007180000261DB1D4400023C5E900433146BDE899
:10072800F0878B4209D9002D00F0EF800026C5E93B
:10073800000130463146BDE8F087B3FA83F6002E53
:100748004AD18B4202D3824200F2F980841A61EBCB
:10075800030301209E46002DE0D0C5E9004EDDE7E9
:1007680002B9FFDEB2FA82F2002A40F09280A1EBD1
:100778000C014FEA1C471FFA8CFE0126200CB1FB26
:10078800F7F307FB131140EA01410EFB03F088421F
:1007980008D91CEB010103F1FF3802D2884200F2AC
:1007A800CB804346091AA4B2B1FBF7F007FB10113E
:1007B80044EA01440EFB00FEA64508D91CEB0404DC
:1007C80000F1FF3102D2A64500F2BB800846A4EB37
:1007D8000E0440EA03409CE7C6F12007B34022FA22
:1007E80007FC4CEA030C20FA07F401FA06F31C4351
:1007F800F9404FEA1C4900FA06F3B1FBF9F8200C5E
:100808001FFA8CFE09FB181140EA014108FB0EF0A3
:10081800884202FA06F20BD91CEB010108F1FF3AF3
:1008280080F08880884240F28580A8F102086144FF
:10083800091AA4B2B1FBF9F009FB101144EA01410D
:1008480000FB0EFE8E4508D91CEB010100F1FF34B8
:100858006CD28E456AD90238614440EA0840A0FB50
:100868000294A1EB0E01A142C846A64656D353D026
:100878005DB1B3EB080261EB0E0101FA07F722FA4A
:1008880006F3F1401F43C5E9007100263146BDE873
:10089800F087C2F12003D8400CFA02FC21FA03F3D6
:1008A800914001434FEA1C471FFA8CFEB3FBF7F057
:1008B80007FB10360B0C43EA064300FB0EF69E427C
:1008C80004FA02F408D91CEB030300F1FF382FD215
:1008D8009E422DD9023863449B1B89B2B3FBF7F6BD
:1008E80007FB163341EA034106FB0EF38B4208D996
:1008F8001CEB010106F1FF3816D28B4214D9023ED7
:100908006144C91A46EA004638E72E46284605E7F4
:100918000646E3E61846F8E64B45A9D2B9EB0208C5
:1009280064EB0C0E0138A3E74646EAE7204694E755
:100938004046D1E7D0467BE7023B614432E7304688
:1009480009E76444023842E7704700BFFEE700BF8A
:100958000B480C4A904203D0121A0B4912F0A2FD20
:100968000A480B4A904203D0121A002112F0A8FD3F
:1009780006F080FF12F06AFD01F026F9FEE700BFDD
:1009880000000024E0030024303A0108E0030024BA
:1009980034D10024704700BF704700BF4020704723
:1009A8008020704749424FF480621430C9B212F077
:1009B80087BD00BF2DE9F041154604461348884617
:1009C80001F07CF9114801F08DF9EDB123686768F1
:1009D80003EB850ED8F800C0D8F80460D4E90254B7
:1009E800D8E9020253F8041B4CF8041B734557F866
:1009F800041B46F8041B55F8041B40F8041B54F864
:100A0800041B42F8041BEDD1BDE8F081FC0300246F
:100A180010B5044640F2144112F0FDFA204610BD0C
:100A28002DE9F041B02482B000F1080600F110056C
:100A380000F11408002728468DF80740013439468C
:100A480003F0D4FD642301220DF107013046E4B21E
:100A580005F0DCFC394628468DF8077003F0C6FD22
:100A6800012264230DF10701304605F0CFFC102365
:100A7800394628468DF8073003F0B8FD6423012273
:100A88000DF10701304605F0C1FC0121284603F0AD
:100A9800ADFD8022414664233046904405F0B6FC03
:100AA800B82CC7D102B0BDE8F08100BF2DE9F04FE6
:100AB80089B008AC9DF84870019104E90C000B78E6
:100AC800002B00F0AB801A469DF818809DF819306D
:100AD8000646454690460393079B0593A8F12004D4
:100AE800E3B25E2B00F29E8033685E4ADB68934275
:100AF80040F09B808020B3882B44834200F392808F
:100B08003368594A9B68934240F092804020F188AC
:100B1800039A02918B18834200F38480002A00F024
:100B2800918002FB04F46FF00049059BA144144432
:100B3800B6F804B003EB4909023BCDF8108003EB8B
:100B480044030C469A4639F802CFA5B304F00703CC
:100B58004FF0010EE20859460EFA03FE0BF114039A
:100B68004FFA8EFE03EBC21200236FEA0E083244DE
:100B78000DE07F2906D83F2C04D8107897B14EEAAB
:100B880000001070013301320131AB4213D00CFA6E
:100B980003F00004EDD47F29F4D83F2CF2D8107864
:100BA800002FECD0013308EA000001320131AB42DA
:100BB80002F8010CEBD1D14504F10104C3D1DDF8F1
:100BC800108032680BEB05042649D368A4B28B4227
:100BD80034D18020844204D3D36822498B423AD14D
:100BE8007F249368204AB480934224D14020029BFA
:100BF800834206D333681C4A9B68934225D13F231E
:100C08000293029BF380019B1878404507D113F8A3
:100C1800018F0193B8F1000F7FF460AF002009B095
:100C2800BDE8F08F4FF00008EDE73046984762E7DF
:100C3800304698476BE730469847D8E7304698479C
:100C48003268C7E7B6F804B0BBE7304698470138C2
:100C580083B20293D5E7304698470138326884B2A8
:100C6800BFE700BFA9090008A50900082DE9F04F52
:100C780085B0A1F1200504AC9DF83870009104E915
:100C88000C00EBB25E2B00F29580036880465D4A4B
:100C9800DB689DF8084093429DF8096040F0948015
:100CA8008020B8F804302344834200F38380D8F8C6
:100CB8000030554A9B68934240F088804020B8F83D
:100CC800062093190192834274DC002E00F089807B
:100CD80006FB05F56FF00040039B964628442E441A
:100CE800B8F804A003EB4000023B03EB460B30F8D6
:100CF800026FBCB30EF007034FF0010C4FEADE029F
:100D080051460CFA03FC0AF114034FFA8CFC03EB6E
:100D1800C21200236FEA0C0942440EE07F2907D86B
:100D2800BEF13F0F04D815789FB14CEA0505157040
:100D38000133013201319C4214D006FA03F52D0427
:100D4800ECD47F29F4D8BEF13F0FF1D81578002FE5
:100D5800EBD0013309EA0505013201319C4202F862
:100D6800015CEAD158450EF1010EC0D1D8F8003027
:100D780054442449DA68A4B28A422DD1802084429E
:100D88001CD29B68204AA8F80440934221D14020F5
:100D9800019B834207D3D8F800301B4A9B689342D3
:100DA80029D13F230193DDE90003A8F8063005B0F7
:100DB800BDE8F08F002005B0BDE8F08FDA68114972
:100DC8008A4211D17F24DCE798476AE74046984772
:100DD80075E740469847DBE740469047D8F800302B
:100DE800CDE7B8F804A0C1E7404690470138D8F8E5
:100DF800003084B2C5E740469847013883B2019372
:100E0800D1E700BFA9090008A50900082DE9F04F9E
:100E180089B01D46884606901046129C10F8013B82
:100E280013999DF85060009233B1002210F8013BED
:100E38000132002BFAD193B22A78687812FB03F3B7
:100E480002B21BB223EAE373082900F2A681DFE8A5
:100E580011F0010113011F01330141014F01660126
:100E68006F010900A18827880F44B4F90610FF1AFA
:100E78000029BFB2C0F2FE806488069804EB6104C2
:100E8800C280A4EB52028380078094B24480A64AB1
:100E9800D8F8003011460192DA688A4240F08B8116
:100EA8008020B84205D8DA6801998A4240F09881D2
:100EB8007F279E4A9B68A8F804709342039240F0EB
:100EC80087814020A04207D8D8F80030039A9B6851
:100ED800934240F080813F24009BA8F8064093F895
:100EE80000B06B782C7804936B680793BBF1000F04
:100EF80000F0AC80ABF12005EBB25E2B00F22C8148
:100F0800D8F80030019ADB68934240F028818020AD
:100F1800B8F8043023449842C0F21E81D8F8003053
:100F2800039A9B68934240F01D814020B8F8061050
:100F3800049A02918B189842C0F20E81002A00F0A0
:100F48001C8102FB05F56FF0004E079BAE4415446B
:100F5800CDF814B003EB4E0E023BB8F804A003EB37
:100F680045030D469B463EF8027FA4B305F00703F0
:100F78004FF0010CEA0851460CFA03FC0AF114037D
:100F88004FFA8CFC03EBC21200236FEA0C094244AF
:100F98000DE07F2906D83F2D04D8107896B14CEA89
:100FA800000010700133013201319C4213D007FA5E
:100FB80003F00004EDD47F29F4D83F2DF2D810783F
:100FC800002EECD0013309EA0000013201319C42C5
:100FD80002F8010CEBD1F34505F10105C3D1DDF8A9
:100FE80014B0D8F800200AEB04050199D368ADB213
:100FF8008B4240F0BD808020854205D3D36801999B
:101008008B4240F0C3807F259368039AA8F8045068
:10101800934240F0AA804020029B834208D3D8F82C
:101028000030039A9B68934240F0AA803F230293C2
:10103800029BA8F80630009A13785B4506D112F88F
:1010480001BF0092BBF1000F7FF454AF069809B0BE
:10105800BDE8F08FB4F9041027880029B8BF013122
:1010680007EB6107B4F90610A7EB63070029BFB2C5
:10107800BFF602AF0131FFE6B4F900700699B4F982
:1010880002400F80BFB24C80A4B28B80CA80FEE6BB
:10109800B4F9041027880029B4F90240B8BF013117
:1010A80007EB610706998B80A7EB63034C80A4B21A
:1010B8009FB2CA800F80EAE6A1882788B4F9024067
:1010C8000F4406998B80FB1A4C80A4B29FB2CA8049
:1010D8000F80DCE6E78861883944B4F90070081AA3
:1010E800069984B20F808B80BFB2CA804C80CEE64E
:1010F800B4F9041027880029B8BF013107EB61074C
:10110800A7EB6307B4F802C0BFB2E4880699644449
:101118008B80201ACA800F8084B24C80B7E627885B
:10112800A1880F44FF1AEDE7A9090008A5090008DE
:10113800B4F90610B4F90070002964880698B8BF9D
:101148000131C28004EB610407808380BFB2A4EB45
:10115800520294B244809AE64FF0000B6BE7404687
:101168009847D5E640469847E0E64046984753E713
:1011780040469847D8F800203EE7B8F804A030E782
:1011880040469847013883B2029351E74046984752
:101198000138D8F8002085B236E7D8F800300024A6
:1011A800069A1349148054809480D480DA68019197
:1011B8008A4205D0274640469047D8F8003070E666
:1011C8009B680C4AA8F80440934203923FF484AE0B
:1011D8004046984776E640469847013884B27BE611
:1011E800404690470138D8F8003087B261E600BF22
:1011F800A9090008A50900087F291ED83F2A1CD87C
:101208006BB1D3084FF0010C02F0070201EBC313D6
:101218000CFA02F2C1180B7D1A430A757047D308FD
:101228004FF0010C02F0070201EBC3130CFA02FCA9
:10123800C1180A7D22EA0C020A7570472DE9F04FA1
:1012480083B05C1A0C9E002C9DF83490A6EB020823
:10125800B8BF6442B8F1000FB8BFC8F100088B42AC
:101268008CBF4FF0010A4FF0FF3A9642A4EB080CEE
:1012780051D84FF0FF357F2B019512D83F2E10D84B
:10128800F50806F0070E012703EBC5150544B9F16B
:10129800000F47D007FA0EF795F814E047EA0E0753
:1012A8002F75964201D18B4229D0C8F100077F29BA
:1012B80014D83F2A12D8D50802F0070B4FF0010EB8
:1012C80001EBC5150544B9F1000F1BD00EFA0BFE52
:1012D80095F814B04EEA0B0E85F814E0B7EB4C0FF6
:1012E8004FEA4C0502DAACEB080C5144AC4202DD83
:1012F800019DA4442A449942D9D19642D7D103B03A
:10130800BDE8F08F0EFA0BFB95F814E02EEA0B0EF1
:1013180085F814E0E2E701257F2B0195C5D83F2E1B
:10132800AED9C2E707FA0EFE2F7D964227EA0E07CE
:101338002F75B8D0B9E700BF2DE9F04F2DED068B1A
:1013480083B01F4680460D469DF8503016460193DF
:10135800139B002BC0F22182129A134406EE103A16
:10136800DDED127AB8EEC66B9FEDCD4BB8EEE77B9C
:101378009FEDCD5B27EE047B26EE046B87EE050B15
:1013880086EE05ABF7EEC08BB0EE680A11F048FEAA
:1013980007EE907AB7EECAABF8EE679AB0EE408ADD
:1013A800B0EE680A11F038FF60EE698AB0EE4A0ABA
:1013B80011F036FEB0EE409AB0EE4A0A11F02CFF5A
:1013C80020EE690A29EE888A29EE899A70EE687AF1
:1013D800F0EE006A39EE487A67EEA77AE7EE077A08
:1013E800F4EEE67AF1EE10FA06D5139BB42B40F32F
:1013F80096804FF0010901E04FF00009012478427E
:101408004FF0000C0095E31B214627462246A340D7
:10141800B9F1000F6AD1424206EE90CACCF1000140
:1014280007EE102AB8EEE66A07EE901A06EE900A62
:10143800B8EEC77A139A66EE084AF8EEE77AB42A45
:1014480027EE284AF8EEE66A67EE885A74EEC43A40
:1014580026EEA85A26EE096A66EE806A67EE897A51
:1014680027EE007AF5EEC03A40F3F280F1EE10FA7A
:1014780000F17F8176EE473A74EEC54AF5EEC03A40
:10148800F1EE10FAF5EEC04ACCBF01220022F1EECF
:1014980010FA00F1778136EE666A35EEC55AB5EE78
:1014A800C06AF1EE10FAB5EEC05ACCBF0121002196
:1014B800F1EE10FA00F16F8177EEE66AF5EEC06A98
:1014C800F1EE10FACCBF0127002775EEC45AF5EEED
:1014D800C05AF1EE10FA00F1478177EEC77AF5EEBF
:1014E800C07AF1EE10FACCBF01240024002A40F0A3
:1014F8008A80002964D1BFB9C4BB9C4558DB0CF174
:10150800010C03EB4C0E1CEB000F0EF1010E00F06A
:10151800C08098424FDB734600287FF779AF03B04D
:10152800BDEC068BBDE8F08F009DA6EB0C0E00EB22
:10153800050ABAF17F0FDFD8BEF13F0FDCD84FEABA
:10154800DE0B019D0AEBCB1A002D00F0B1800EF0E6
:10155800070BC2444FF0010E0EFA0BFE9AF814B0B6
:101568004EEA0B0E8AF814E0002CC6D0009DA6EBBC
:101578000C0EA5EB000ABAF17F0FBED8BEF13F0FE3
:10158800BBD84FEADE0B019D0AEBCB1A002D00F009
:10159800AE800EF0070BC2444FF0010E9C450EFAC8
:1015A8000BFE9AF814B04EEA0B0E8AF814E0A6DA8D
:1015B80098429E46AFDA01300EEB40030133ABE7A9
:1015C800009D0CEB060E00EB050ABAF17F0F92D8CE
:1015D800BEF13F0F8FD84FEADE0B019D0AEBCB1A05
:1015E800002D73D00EF0070BC2444FF0010E0EFA17
:1015F8000BFE9AF814B04EEA0B0E8AF814E0002F8E
:101608003FF47AAF90E7009D0CEB060EA5EB000ABD
:10161800BAF17F0F3FF66DAFBEF13F0F3FF669AFEE
:101628004FEADE0B019D0AEBCB1A002D6DD00EF0B0
:10163800070BC2444FF0010E0EFA0BFE9AF814B0D5
:101648004EEA0B0E8AF814E000293FF454AFB7E7CE
:10165800F1EE10FA7ED44A4674EEC54AF5EEC04A59
:10166800F1EE10FA6CD4002135EEC55AB5EEC05A29
:10167800F1EE10FA5AD4002775EEC45AF5EEC05AA6
:10168800F1EE10FA3FF529AF0024002A3FF431AFFC
:10169800B9E798428FDB00233BE700BFAFF3008038
:1016A8007A008BFCFA2109400000000000806640A7
:1016B800C2444FF0010B0EF0070E0BFA0EFE9AF81B
:1016C80014B02BEA0E0E8AF814E015E7C2444FF066
:1016D800010B0EF0070E0BFA0EFE9AF814B02BEA67
:1016E8000E0E8AF814E0002F3FF406AF1CE7C24440
:1016F8004FF0010B0EF0070E0BFA0EFE9AF814B01D
:101708002BEA0E0E8AF814E0F7E6C2444FF0010BFC
:101718000EF0070E0BFA0EFE9AF814B02BEA0E0E16
:101728008AF814E000293FF4E6AE49E777EEE66A66
:10173800F5EEC06AF1EE10FACCBF012700279BE74F
:1017480036EE666AB5EEC06AF1EE10FACCBF01213A
:10175800002189E776EE473AF5EEC03AF1EE10FA45
:10176800CCBF0122002277E70124002A3FF4C1AE52
:1017780049E774EEC54A0122F5EEC04AF1EE10FAC7
:101788007FF589AE35EEC55A0121B5EEC05AF1EEA6
:1017980010FA7FF591AE012797E6DDE9122313448D
:1017A80006EE102A1293139B5B421393D8E500BFF1
:1017B8002DE9F04F87B09DF84850109C2E460195B2
:1017C8009DF844509EB399422ED89946A24228D8F3
:1017D8007F29164694BF0023012308E09CF8148053
:1017E8004EEA080E8CF814E00136B44219D33F2EA5
:1017F800FAD8002BF8D14FEAD60C06F0070E4FF0B6
:10180800010801EBCC1C08FA0EFE8444002DE5D13A
:101818009CF814B001362BEA0E0AB4428CF814A0D6
:10182800E5D201318945D1D207B0BDE8F08FA3EBED
:101838000108B8F1000FB8BFC8F100089942C0F01C
:101848004E817F2B4FF0FF3A94BF002601263F2A96
:10185800009694BF002701270297A6B99FB9D6081A
:1018680002F0070C012703EBC6160644002D00F012
:10187800948107FA0CF796F814C047EA0C073775F5
:10188800002602960096994200F0978146469446B3
:101898008E46BEF17F0F16D8BCF13F0F13D84FEA22
:1018A800DC070CF0070B4FF001090EEBC7170744D4
:1018B800002D00F0398109FA0BF997F814B049EABC
:1018C8000B0987F81490770018BFD644B84502DD95
:1018D80046440CF1FF3C7345DBD16245D9D1002663
:1018E8000496A4EB0209009FB9F1000FB8BFC9F133
:1018F80000093F2C94BF00260126A242C9F1000826
:101908000396C0F02381002F40F05081002E40F054
:101918004D814FF0FF360096E60803EBC6160644E5
:10192800002D00F01E814FF0010C04F007070CFA9F
:1019380007F796F814C047EA0C0737750026039690
:10194800A24200F03D81C44616461F4605927F2FED
:1019580015D83F2E13D84FEAD60E06F0070B4FF0D6
:10196800010A07EBCE1E8644002D00F0E6800AFA35
:101978000BFA9EF814B04AEA0B0A8EF814A0B8EBDA
:101988004C0F4FEA4C0E02DAACEB090C013FBEF1EA
:10199800000F01D0009A1644BB42D8D1B442D6D128
:1019A800059AA1EB030EBEF1000FB8BFCEF1000EF1
:1019B8007F2994BF4FF0000A4FF0010A99428CBF6B
:1019C8004FF001094FF0FF39BAF1000F13D1039E10
:1019D8008EB9E60801EBC6160644002D00F0D38048
:1019E8004FF0010C04F007070CFA07F796F814C03B
:1019F80047EA0C073775049E26BB774626467F2B99
:101A080014D83F2E12D84FEAD60C06F0070B4FF029
:101A1800010803EBCC1C8444002D73D008FA0BF8A2
:101A28009CF814B048EA0B088CF814805FEA470C5D
:101A380018BF4B44E64501DD7744013E9942DED1AB
:101A4800B442DCD1A2EB040EBEF1000FB8BFCEF158
:101A5800000EA2428CBF4FF001084FF0FF38CEF1C4
:101A6800000CBAF1000F0ED1029B63B9D30802F043
:101A78000707012601EBC3130344002D7CD0BE40A9
:101A88001F7D3E431E75019B002B7FF4CDAE66463D
:101A98000B467F2B12D83F2C10D8E70804F0070A12
:101AA8004FF0010903EBC7170744A5B309FA0AF970
:101AB80097F814A049EA0A0987F81490BCEB460F76
:101AC8004FEA460702DAA6EB0E06013B07B144448B
:101AD8009942DED1A242DCD107B0BDE8F08F3F2A9F
:101AE8004FF0010A94BF002601267F2B029694BF6F
:101AF800002701270097002E7FF4C8AE002F3FF47F
:101B0800AEAEC3E608FA0BFB9CF8148028EA0B0873
:101B18008CF814808AE709FA0AFA97F8149029EAE7
:101B28000A0987F81490C9E709FA0BFB97F814908B
:101B380029EA0B0987F81490C5E60AFA0BFB9EF808
:101B480014A02AEA0B0A8EF814A018E797BB8EBBDC
:101B580001260096E60803EBC6160644002D7FF41E
:101B6800E2AE012704F0070C039507FA0CFC377D59
:101B780027EA0C073775E3E606FA07F71E7D26EA1B
:101B880007061E757FE7012704F0070C07FA0CFC0F
:101B9800377D27EA0C0737752DE707FA0CFC377DE8
:101BA800029527EA0C07009537756CE64FF0FF366B
:101BB8000096C5E601260096C5E60126049690E63D
:101BC80001260196EDE600BF08B50021094800F09E
:101BD8000FFB0421074800F05BF80321054800F0DB
:101BE80045F8044800F066F80349024800F03CF85C
:101BF800FEE700BFFC030024BD09000814480022CA
:101C0800144900F5104310B40C888988A3F8A04142
:101C1800114C0260C3F8A8414FF60F044261A3F8C3
:101C2800AC410724026283F8AE410C4CC0F8F420A2
:101C3800C3F89C21A3F8A211C3F8A421C3F8B821C2
:101C4800C3F8B041064A07495DF8044B11F0DEB904
:101C5800FC0300248C35010880707FF0DC35010816
:101C6800000000249D09000800F070BB70B505460F
:101C780000F070FB05F1640405F1E406284600F065
:101C8800A1FB2046203401F053FEB442F6D170BDCA
:101C980070B5054600F07AFB05F1640405F1E40629
:101CA800284600F08FFB2046203401F041FEB44264
:101CB800F6D170BD183002F019B900BF10B504464E
:101CC800643001F011FE04F1840001F00DFE04F10E
:101CD800A40001F009FE04F1C400BDE8104001F0C1
:101CE80003BE00BF3C3001F07FBE00BF30B59DB0E1
:101CF800054600F04BFC01285FD033490022012340
:101D0800CDF82A10CDE910230022304901230324FD
:101D18001B200F9312930C94CDE9082140F2045133
:101D2800CDE90D32CDE91832CDE91A23ADF82810E6
:101D3800CDE9164300F0F4FA03461820ADF84E300A
:101D480000F0EEFA03461C20ADF84C3000F0E8FA3B
:101D580003461920ADF8503000F0E2FA03461A2085
:101D6800ADF8543000F0DCFA0022002308A9ADF8E1
:101D7800520002A8CDE9022303F082FB12A903A8AE
:101D880003F07EFB1D2000F0CBFAADF804000198AB
:101D980000F014FC4FF07E5230214FF07C5C07922B
:101DA80005F11400049104A9039B029A0594CDF847
:101DB80018C001F095FC1DB030BD034A00231090F7
:101DC800CDF82A2011939FE70406040304020404B3
:101DD800F0B506460F20002406F1180706F1640541
:101DE8002DED028B99B09FED258A00F099FA0346F4
:101DF80007A8ADF80C30039901F086FE102000F01A
:101E08008FFA03460DF12D00ADF81030049901F05A
:101E18007BFE152000F084FA03460DF13E00ADF874
:101E28001430059901F070FE122000F079FA03468B
:101E38000DF14F00ADF81830069901F065FE042346
:101E480007A938461A4601F06DFEE1B2384602F09D
:101E580063F8014601343046019100F0B3FA284690
:101E6800F0EE480A002301220199203501F00AFD0D
:101E7800042CEAD119B0BDEC028BF0BD6F12033B04
:101E88002DE9F04F8046A5B0092049F2B81400F0BA
:101E980047FA03461E200125ADF8303000F040FA1D
:101EA8004444002606950DF1380AADF832000DF1CC
:101EB800640CD64608F5104804F10409CAA3D3E90E
:101EC8000023CDE90866CDE9022300220023CDE9ED
:101ED8000423082202230DEB020BA7180792CDE971
:101EE8000A33BBE80F00AAE80F00BBE80F00AAE816
:101EF8000F009BE807008AE80700BEE80F00ACE87F
:101F08000F00BEE80F00ACE80F009EE807008CE861
:101F18000700BDF88C30384688F8C251A8F8C0319F
:101F280002F07AFABDF88E30484688F8BE51A8F813
:101F3800BC3102F071FA19A9204604F0DFF93146E4
:101F4800484602F053FB0A2005F0DAFA29464846CB
:101F580002F04CFB0A2005F0D3FAAE23314638468E
:101F68008DF8073002F042FB2A460DF10701642381
:101F7800204604F04BFAD523314638468DF8073011
:101F880002F034FB2A460DF107016423204604F0D1
:101F98003DFA8023314638468DF8073002F026FB9B
:101FA8002A460DF107016423204604F02FFAA823DE
:101FB800314638468DF8073002F018FB2A460DF1F5
:101FC80007016423204604F021FA3F2331463846AE
:101FD8008DF8073002F00AFB2A460DF10701642349
:101FE800204604F013FADA23314638468DF80730D4
:101FF80002F0FCFA2A460DF107016423204604F09A
:1020080005FA1223314638468DF8073002F0EEFA09
:102018002A460DF107016423204604F0F7F9D3237B
:10202800314638468DF8073002F0E0FA2A46642334
:102038000DF10701204604F0E9F9314638468DF8DC
:10204800076002F0D3FA2A460DF1070164232046FF
:1020580004F0DCF94023314638468DF8073002F0A9
:10206800C5FA2A460DF107016423204604F0CEF98B
:10207800A623314638468DF8073002F0B7FA2A46CB
:102088000DF107016423204604F0C0F9A42331466A
:1020980038468DF8073002F0A9FA2A460DF10701F3
:1020A8006423204604F0B2F98D23314638468DF872
:1020B800073002F09BFA2A460DF1070164232046F7
:1020C80004F0A4F91423314638468DF8073002F09D
:1020D8008DFA2A460DF107016423204604F096F98B
:1020E800A123314638468DF8073002F07FFA2A4698
:1020F8000DF107016423204604F088F9C82331460E
:1021080038468DF8073002F071FA2A460DF10701BA
:102118006423204604F07AF98123314638468DF845
:10212800073002F063FA2A460DF1070164232046BE
:1021380004F06CF98F23314638468DF8073002F0E9
:1021480055FA2A460DF107016423204604F05EF98A
:10215800D923314638468DF8073002F047FA2A4627
:102168000DF107016423204604F050F92523314678
:1021780038468DF8073002F039FA2A460DF1070182
:102188006423204604F042F9DB23314638468DF8B3
:10219800073002F02BFA2A460DF107016423204686
:1021A80004F034F93423314638468DF8073002F00C
:1021B8001DFA2A460DF107016423204604F026F98A
:1021C800AF23314638468DF8073002F00FFA642302
:1021D8002A460DF10701204604F018F925B0BDE89C
:1021E800F08F00BFAFF30080060B0B000105060A55
:1021F8002DE9F04304468DB000250127019100F038
:102208008DF80199204600F049F904F1200920468B
:102218004FF00208FFF76AFD2046FFF731FE05A9D7
:10222800484604F51046CDE90875CDE9068502F063
:102238003DF82A464146484602F0B6F80C2000F020
:102248006FF8ADF810000B2000F06AF8ADF80C003C
:10225800284600F065F89FED2F0A0499ADF80800AC
:1022680004F13C00DDE9023201F08EFB112000F0A0
:1022780057F8A6F8C40549F2C450A6F8C675204414
:1022880002F0CAF8142000F04BF83A4605A9ADF858
:10229800140004F1E40001F0E5FB132000F040F81D
:1022A8003A4605A9ADF8140004F1EB0001F0DAFB99
:1022B8002046FFF7E5FD47F6122349F2A41005A9C9
:1022C8000B93154B2044C6F89C51059303F17F43AB
:1022D800CDF8248003F5807307970A97C6F8A031D4
:1022E8000895069504F01CFF0A23C6F8905120466D
:1022F800C6F88C5184F8FC3084F8F850FFF768FD74
:102308001123C6F8CC3505F0F9F8C6F8C8050DB0A4
:10231800BDE8F0830000000001060107704700BF18
:10232800202882B009D8084B03EB400213F810307C
:10233800507843EA002002B0704701230C2043EA9A
:10234800002002B0704700BF10360108143001F0B9
:1023580065BA00BF38B500F1140504462DED028BAF
:10236800284601F017FA284601F010FA2846B0EE80
:10237800408A01F0F9F9D0ED007AF8EE677A88EE34
:10238800277ABDEC028B84ED0E7A38BD38B500F1A2
:10239800140504462DED028B284601F0E9F928467C
:1023A80001F0F4F92846B0EE408A01F0DDF9D0EDED
:1023B800007AF8EE677A88EE277ABDEC028B84ED16
:1023C8000E7A38BD90ED0E0A704700BFF0B50323B2
:1023D80099B000270125129306462C4B09A815959C
:1023E800CDE90E7340F20453ADF84030284BCDE9E7
:1023F8001357099302F010F809A802F0E9F8002829
:1024080036D1244B04AF04460090CDF84230102357
:10241800394604958DF820301F4BCDE91650CDE98B
:1024280006506846059302F061FA0823009A01A94C
:1024380009A8ADF804508DF8064009940295039355
:1024480000F0FCF800230EA938463024049303F06A
:1024580017F803224FF07E5309A906F114000B93D5
:102468000C93CDE90942049A01F002F919B0F0BDC4
:1024780040F60132074B169704AFADF824200998AF
:10248800CDF84230179500F099F8DBE70402040410
:1024980003030001040604030704010B2DE9F043BC
:1024A80004462DED028B83B0002948D0012140F26B
:1024B800011200230091ADF804208DF80630304A4F
:1024C8000126304B271D304904F12908626040F28B
:1024D8000272A36040F60663E16004F125092682D2
:1024E800A4F8252084F82760A4F8293084F82B6004
:1024F80005F076F96946054648B304F130008DF8D1
:10250800066005F0C9F8072D34D104F114052046FA
:10251800FFF75CFF284601F039F92846B0EE408AFB
:1025280001F022F9D0ED007AF8EE677A88EE277A82
:1025380084ED0E7A03B0BDEC028BBDE8F08340F267
:10254800011300918DF80610ADF80430B7E704F1D7
:10255800300005F0A1F83946204602F011FC484643
:1025680001F05AFF404601F057FF04F1120000F055
:102578008FF9CAE73946204602F002FCC5E700BFDA
:102588000508050905070506050A06060A4B4FF45E
:10259800807200B583B01B8801A8ADF80620ADF89D
:1025A800043001F039FF01A802F012F8B0FA80F007
:1025B800400903B05DF804FB9435010810B584B0F8
:1025C80003460124ADF8040003A8ADF80C30ADF8BB
:1025D8000E4001F021FF214603A802F007F820462B
:1025E80004F08EFF002103A802F000F8204604F052
:1025F80087FF214603A801F0F9FF04B010BD00BF12
:1026080010B5C2F3002384B00C46017C8DF80D2070
:1026180043EA4402FA2402238DF80C2003AA00940A
:1026280002F0FAF918B10124204604B010BD04469E
:102638000A2004F065FF204604B010BD034670B5BB
:1026480043F8042B044684B007C983E80700A3793C
:1026580083B91A210B461E22FA2523742046ADF8A9
:102668000C20022303AA009502F0D6F928B1012014
:1026780004B070BD1B210B46EDE70A2004F040FFB3
:102688004FF4B85200950223ADF80C20204603AA57
:10269800217C02F0C1F90028E9D10A2004F030FFBA
:1026A80041F2027200950223ADF80C20204603AADD
:1026B800217C02F0B1F90028D9D10A2004F020FFCA
:1026C800042200950223ADF80C20204603AA217CA1
:1026D80002F0A2F90028CAD10A2004F011FF06224C
:1026E80000950223ADF80C20204603AA217C02F0B5
:1026F80093F90028BBD10A2004F002FF41F2082216
:1027080000950223ADF80C20204603AA217C02F094
:1027180083F90028ABD10A20064604F0F1FE0095A3
:10272800022303AA217C2046ADF80C6002F074F95C
:1027380000289CD1304604F0E3FE009522790C2352
:102748002046002A8DF80C3003AA4FF0020314BF6C
:10275800622142218DF80D10217C02F05DF90028DC
:1027680085D1304604F0CCFE2279D4E902310B43FE
:10277800DBB20AB943F0400362790AB143F020039F
:102788000E22FA258DF80D302046009502238DF88B
:102798000C2003AA217C02F03FF900287FF467AFE0
:1027A8000A2004F0ADFE102200950223ADF80C209B
:1027B800204603AA217C02F02FF900287FF457AFA6
:1027C8000A2004F09DFE122100950223ADF80C109A
:1027D80003AA217C204602F01FF900287FF447AFA6
:1027E8000A2004F08DFE012209212046FFF708FF88
:1027F800003818BF01203BE7F0B5102387B0234C01
:10280800012200250126002702A920460195CDE9CD
:1028180002234FF48052CDE904670BF0C5FE642013
:1028280005F084FA02A94FF480522046CDE90467E6
:1028380002261027CDE902670BF0B6FE032210230B
:1028480002A92046CDE9022300230422CDE904236E
:102858004FF480520BF0A8FE40F23223042202A962
:10286800019310232046CDE90223019A0123059202
:102878004FF4805204930BF097FE40F60601204671
:102888000BF0B2FE284607B0F0BD00BFD499002473
:102898001C4B00221C494FF0400C30B5054689B04E
:1028A8000220596007219A601A620124DA620A221A
:1028B8004FF4006EDC6006922022CDE9000104206E
:1028C8000821CDE9020103201021CDE904010820E7
:1028D8006946C3E904024FF4C072181DC3E906C271
:1028E8004FF48052C3E909E20BF034FE38B92846A8
:1028F800FFF782FF003818BF012009B030BD20461D
:1029080009B030BDD099002440410052614A0021ED
:10291800D0B513688EB00A91002B40F0B9805E4B99
:1029280001214FF683700C2411600221D3F8D420C2
:102938000026032742F48052C3F8D420D3F8D420C9
:1029480002F480520092009AD3F8E02042F010027C
:10295800C3F8E020D3F8E02002F010020192019AB7
:10296800D3F8E02042F04002C3F8E020D3F8E0209A
:1029780002F040020292029AD3F8E02042F00802E4
:10298800C3F8E020D3F8E02002F008020392039A8B
:10299800D3F8E02042F48072C3F8E020D3F8E020B6
:1029A80002F480720492049AD3F8E02042F0800284
:1029B800C3F8E020D3F8E02002F080020592059ADF
:1029C800D3F8E02042F02002C3F8E020D3F8E0205A
:1029D80002F020020692069AD3F8E02042F00402A0
:1029E800C3F8E020D3F8E0300C9403F00403079315
:1029F8000323079A0B93CDE9080108A9274807F094
:102A080047F948F23712022308A925480C94CDE962
:102A18000823CDE90A6707F03BF94CF20372022359
:102A280008A920480C94CDE90823CDE90A6707F0E6
:102A38002FF940F2FF62022308A91B480C94CDE944
:102A48000823CDE90A6707F023F94FF60C72022331
:102A580008A916480C94CDE90823CDE90A6707F0C0
:102A680017F94FF63F02022308A911480C94CDE943
:102A78000823CDE90A6707F00BF92022022308A9E9
:102A88000A480C94CDE90A67CDE9082307F000F954
:102A98000EB0D0BDCC990024004402580010025852
:102AA80000180258000C025800200258001C025856
:102AB800001402582DE9F04FDFF8108406460D4641
:102AC800144608F118002DED028B89B000AF02F012
:102AD800CFFDD8F8183073B3D8F81C30D8F8049064
:102AE800002B43690BBF4FF0080A4FF0100A4FF054
:102AF800020B4FF0040BB9F1000F2AD0A200EA46EE
:102B0800012B02F1070222F00702ADEB020D684625
:102B1800ADEB020D694600F03F81022B00F0D68034
:102B2800002B6FD02246C847D5462437BD46BDEC9A
:102B3800028BBDE8F08FD8F81C30002BF5D0D8F800
:102B480004904FF0080A4FF0020B4369B9F1000FE7
:102B5800D4D1FB61D8F80030BB61002BE5D0D54853
:102B680002F0F8FD6B46BBF1020F786108EE103AEF
:102B7800FB6900F083816A465146A2EBC402954680
:102B88006200EA46B2FBFBF2AAEBC40085460AEBF8
:102B98008200EE46F861ADEB010DF8690EEB820C90
:102BA800C7F810C0EC46ADEB010D00EB8201CCF884
:102BB8000400CCF8081001EB82013869E946CCF82A
:102BC8000C1000EB8201CCF800A001EB8202C9E9ED
:102BD80000E0C9E90212012B00F06483022B00F027
:102BE8006C82002B00F08081620849466046BB6910
:102BF800984718EE103A24379D46BD46BDEC028B27
:102C0800BDE8F08F002C8DD01A46D8ED0C6A9FEDE8
:102C1800B27A8446331D36F922E00CF1080C07EE2F
:102C280090EA33F922E00232F8EEE77A944267EE4E
:102C3800877A67EEA67A4CED027A07EE90EAF8EE0C
:102C4800E77A67EE877A67EEA67A4CED017AE2D8E2
:102C5800F9612246C847984ED8ED0D6A0020F969F7
:102C68002B1D9FED9E7A9FED9E6ADFED9E5A22E016
:102C7800F4EEC67AF1EE10FAC0F2C88447F6FE7296
:102C8800D1ED017A45F8202066EEA77AF4EEC77AEE
:102C9800F1EE10FA40F2F080F4EEC67AF1EE10FA96
:102CA800C0F2D58447F6FE7243F82020023008317E
:102CB80084427FF639AFD1ED007A66EEA77AF4EE5A
:102CC800C77AF1EE10FAD3D83246D9E7002C3FF490
:102CD80029AFD8ED0C6A84469FED787A0022331D1F
:102CE8008E4656F822100CF1080C07EE901A53F88D
:102CF80022100232F8EEE77A944267EE877A67EE9E
:102D0800A67A4CED027A07EE901AF8EEE77A67EEAB
:102D1800877A67EEA67A4CED017AE2D871462246A8
:102D2800C7F81CE0C847664ED8ED0D6A0020F9695F
:102D38002B1D9FED6A7A9FED6A6ADFF894C120E047
:102D4800F4EEC67AF1EE10FAC0F279843246D1ED8B
:102D5800017A45F8202066EEA77AF4EEC77AF1EEFC
:102D680010FA40F28780F4EEC67AF1EE10FAC0F25B
:102D78005E84324643F820200230083184427FF6D0
:102D8800D3AED1ED007A66EEA77AF4EEC77AF1EE0B
:102D980010FAD5D86246DAE7002C3FF4C3AED8ED76
:102DA8000C6A86469FED477A4FF0000C331D56F8A3
:102DB8002C200EF1080E82F40002A2F5000207EEA4
:102DC800902A53F82C200CF1020CF8EEE77A82F4E2
:102DD80000026445A2F5000267EE877A67EEA67ADC
:102DE8004EED027A07EE902AF8EEE77A67EE877AD8
:102DF80067EEA67A4EED017AD9D8F9612246C8471E
:102E0800314ED8ED0D6A0020F9692B1D9FED337AFC
:102E18009FED336ADFF8BCC01FE0F4EEC67AF1EE2E
:102E280010FAC0F2FC833246D1ED017A45F8202031
:102E380066EEA77AF4EEC77AF1EE10FA18D9F4EE36
:102E4800C67AF1EE10FAC0F2DA83324643F820204F
:102E58000230083184427FF667AED1ED007A66EE23
:102E6800A77AF4EEC77AF1EE10FAD6D86246DBE715
:102E78006246EBE762467DE7324615E7A100D64693
:102E88006208073121F00701ADEB010DEA46ADEB11
:102E9800010D6946ADEB0E0D0AEB8200EC46ADEB79
:102EA8000E0D01EB8202F861E946CCE900A0C9E900
:102EB800001290E6249A00240280FFFF00000030F0
:102EC8000082FF7F0000003482FF7F00089A002400
:102ED800007E00807E0080FF0000003804FF7FBF76
:102EE80004FF7F3F00FEFF46002C00F0C982BBF1C3
:102EF800020FD8F8242000F0FA827969C7F8049004
:102F080002EB810E5FED0C5A8A00DCF808100EF116
:102F180004007A611A46DCF80C303B61331DD7F89F
:102F280010903D61FD69C7E902CB8C46834636F9AE
:102F38002210D8ED0C7A06EE101A33F9221006EE9C
:102F4800901A3EF92210B8EEC66A07EE101AF8EE8B
:102F5800E66A3BF92210B8EEC77A26EE256A66EED5
:102F6800A56A27EE257A26EE276A66EEA76A27EE77
:102F7800277A07EE901A51080232F8EEE77A0AEB40
:102F88008100944280ED006A05EB810067EEA57A26
:102F9800C0ED006A0CEB810009EB810180ED007A3D
:102FA80098ED0C7A67EE877AC1ED007ABFD8D7F82A
:102FB80004903D69D7E902CB60466208BB6949467F
:102FC8009847D8F82C307A69D8ED0D6A1A441FED65
:102FD8003D7A1FED3D6A2B1D904602F1040A5FED14
:102FE8003F5A0022A84ED9E900EC51E0F4EEC67A27
:102FF800F1EE10FAC0F2C78247F6FE7045F82200DB
:103008000CEB0100D0ED007A66EEA77AF4EEC77AF1
:10301800F1EE10FA4BD9F4EEC67AF1EE10FAC0F2DE
:10302800BA8247F6FE70BBF1020F43F822002BD09C
:10303800D9F808000844D0ED007A66EEA77AF4EED5
:10304800C77AF1EE10FA36D9F4EEC67AF1EE10FA34
:10305800C0F2CD8247F6FE7048F82200D9F80C007D
:103068000144D1ED007A66EEA77AF4EEC77AF1EE64
:1030780010FA1ED9F4EEC67AF1EE10FAC0F2AF8259
:1030880047F6FE714AF82210023294427FF6B1AD3B
:1030980051080EEB81008900D0ED007A66EEA77A20
:1030A800F4EEC77AF1EE10FAA0D83046A6E730461B
:1030B800B9E73146E6E73046CEE7002C00F0E0817C
:1030C800BBF1020FD8F8243000F0E1817A69DCF80E
:1030D800081003EB820EC7F804909300DFED6B5ADB
:1030E8000EF1040000227B61DCF80C303B61331DDB
:1030F800D7F810903D61FD69C7E902CB8C4683463D
:1031080056F82210D8ED0C7A07EE101A53F8221050
:10311800B8EEC76A07EE101A5EF82210F8EEC76A12
:1031280007EE101A26EE256A5BF82210B8EEC77A69
:1031380066EEA56A26EE276A27EE257A66EEA76A66
:1031480027EE277A07EE901A51080232F8EEE77A4E
:103158000AEB8100944280ED006A05EB810067EE7E
:10316800A57AC0ED006A0CEB810009EB810180EDC6
:10317800007A98ED0C7A67EE877AC1ED007ABFD8AD
:10318800D7F804903D69D7E902CB60466208BB696D
:1031980049469847D8F82C307A69D8ED0D6A1A4410
:1031A8009FED3E7A9FED3E6A131D9246DFF8E4C01C
:1031B8000022FB612B1D364ED9E9008E4EE0F4EE5D
:1031C800C67AF1EE10FAC0F2FC81304645F82200CA
:1031D8000EEB0100D0ED007A66EEA77AF4EEC77A1E
:1031E800F1EE10FA49D9F4EEC67AF1EE10FAC0F20F
:1031F800EF813046BBF1020F43F822002AD0D9F8FC
:1032080008000844D0ED007A66EEA77AF4EEC77A93
:10321800F1EE10FA35D9F4EEC67AF1EE10FAC0F2F2
:10322800C98130464AF82200D9F80C000144D1ED92
:10323800007A66EEA77AF4EEC77AF1EE10FA1ED994
:10324800F4EEC67AF1EE10FAC0F2AD813146F869B3
:1032580040F82210023294427FF6CBAC510808EBBA
:1032680081008900D0ED007A66EEA77AF4EEC77A7D
:10327800F1EE10FAA3D86046A8E76046BAE76146BF
:10328800E5E76046CEE700BF0280FFFF00000030A0
:103298000082FF7F007E00800000003404FF7FBFB3
:1032A80004FF7F3F002C00F0EB807A690021D8F8FA
:1032B8002430C7F8109003EB820ED7F81C909300C7
:1032C800FD610EF104021FED0C6A7B61331D15468A
:1032D80056F821204808D8ED0C6ABBF1020F82F499
:1032E8000002A2F5000207EE902A53F8212082F48A
:1032F8000002B8EEE77AA2F5000227EE067A07EE9A
:10330800902A0AEB8002F8EEE77A27EE267A67EE33
:10331800867A82ED007A09EB80024FEA800067EE38
:10332800A67AC2ED007A27D05EF8212082F4000246
:10333800A2F5000207EE902A55F8212082F4000237
:10334800B8EEE77AA2F5000227EE067A07EE902A91
:10335800DCF80820F8EEE77A024427EE267A67EED2
:10336800867A82ED007A98ED0C7ADCF80C2067EE0C
:10337800877A0244C2ED007A02318C42A8D8D7F885
:10338800109060466208BB694946FD699847D8F8BD
:103398002C307A69D8ED0D6A1A441FED407A1FED7A
:1033A800406A131D9246DFF8C4C20022FB612B1D40
:1033B800AB4ED9E9008E4EE0F4EEC67AF1EE10FA83
:1033C800C0F2C580304645F822000EEB0100D0ED72
:1033D800007A66EEA77AF4EEC77AF1EE10FA49D9C8
:1033E800F4EEC67AF1EE10FAC0F2BF803046BBF1B7
:1033F800020F43F822002AD0D9F808000844D0ED7B
:10340800007A66EEA77AF4EEC77AF1EE10FA35D9AB
:10341800F4EEC67AF1EE10FAC0F2AE8030464AF801
:103428002200D9F80C000144D1ED007A66EEA77AA3
:10343800F4EEC77AF1EE10FA1ED9F4EEC67AF1EE80
:1034480010FAC0F28B803146F86940F82210023237
:1034580094427FF6CEAB510808EB81008900D0ED8D
:10346800007A66EEA77AF4EEC77AF1EE10FAA3D8DE
:103478006046A8E76046BAE76146E5E76046CEE7FA
:10348800224649466046BB699847FFF7B2BBC7F872
:1034980010B0002298ED0C6A331DDFED726AD7F880
:1034A8001CB0786956F8221007EE901A53F82210CB
:1034B800B8EEE77A07EE901A51080232F8EEE77A8A
:1034C80027EE267A0AEB810E94420BEB810167EE18
:1034D800A67A27EE067A67EE867A8EED007AC1ED37
:1034E800007ADFD88300D7F810B07B614DE61A4622
:1034F800C7F810B098ED0C6A331DDFED5B6AD7F89A
:103508001CB0786936F9221007EE101A33F9221028
:1035180007EE901AB8EEC77A51080232F8EEE77A49
:1035280027EE267A0AEB810E94420BEB810167EEB7
:10353800A67A27EE067A67EE867A8EED007AC1EDD6
:10354800007ADFD88300D7F810B07B6134E5F0EE5D
:10355800675AFEEEE45A15EE900A34E7F0EE675A21
:10356800FEEEE45A15EE901A6EE7F0EE675AFEEE9C
:10357800E45A15EE900A3AE7F0EE675AFEEEE45A7E
:1035880015EE900A4BE767EEA57AFDEEE77A17EE9F
:10359800900A00B232E567EEA57AFDEEE77A17EEFB
:1035A800900A00B23FE5F0EE675AFEEEE05A15EEDB
:1035B800901A4CE6F0EE675AFEEEE05A15EE900AC5
:1035C80030E6F0EE675AFEEEE05A15EE900AFDE599
:1035D800F0EE675AFEEEE05A15EE900A0AE667EE3C
:1035E800A57AFDEEE77A17EE901A09B24AE567EE7A
:1035F800A57AFDEEE77A17EE900A00B22CE5F0EE18
:10360800675AFEEEE45A15EE902A1FE467EEA57A93
:10361800FDEEE77A17EE902A12B2FFF731BBF0EE13
:10362800675AFEEEE45A15EE902AFFF7FDBBF0EE5E
:10363800675AFEEEE05A15EE902AFFF79BBBF0EEB4
:10364800675AFEEEE05A15EE902AFFF780BB67EE48
:10365800A57AFDEEE77A17EE902A12B2FFF724BB9F
:1036680082FF7F0000000030000000387E0080FFED
:1036780030B5184C154685B0046004F1080EEC46C8
:103688000FC98EE80F00D4ED047AF5EEC07A8CE805
:103698000F00F1EE10FA1ADDB7EE006A94ED057A24
:1036A80027EE277AC6EE276A84ED0D7AC4ED0C6AF8
:1036B8006DB1204640F8185F01F0DAFF064903694A
:1036C8000020064A2162A262E36005B030BD0120F5
:1036D80005B030BD089A00240020003000000030FA
:1036E800F0B51C4C16461F4689B0046004F1080565
:1036F800EE460DF1100C0FC985E80F00D4ED047AE1
:10370800F5EEC07A8EE80F00F1EE10FA8CE80F00A3
:1037180017DDB7EE006A94ED057A27EE277AC6EE34
:10372800276A84ED0D7AC4ED0C6A56B1204640F83C
:10373800186F01F09DFF08490369084A2162A262D7
:10374800E360074A0020074BE7616262E36209B061
:10375800F0BD00BF089A00240020003000000030AF
:10376800003000300010003000680830704700BF9B
:10377800B1F5807F03680A4628BF4FF48072B1F51F
:10378800807F9A6094BF002001207047006818303D
:1037980001F0CEBF70B504688AB0A369E160CBB10F
:1037A80004F11805284601F063FF8446EE46E668F2
:1037B800BCE80F00AEE80F00BCE80F00AEE80F0051
:1037C8009CE803008EE8030069462846049601F049
:1037D80057FEF8B9E069D8B104F11C05284601F094
:1037E80047FF8446EE46E468BCE80F00AEE80F00E9
:1037F800BCE80F00AEE80F009CE803008EE8030069
:1038080069462846049401F03BFE003818BF0120A1
:103818000AB070BD01200AB070BD00BF30B50468A1
:1038280083B00D46E3694BB1A3680020E26A616A80
:103838009B00009004F11C0001F01CFFA3680748DE
:10384800A26A9B00216A009004F1180001F012FF9F
:103858000020C4E9005003B030BD00BFBD2A0008F5
:1038680010B4074B4FF07E51302400220320196119
:103878009C60D8605DF8044B5961C3E90622704723
:10388800089A0024F6EE007A9FED166A20EE207A58
:103898000160F7EE006A80ED036A80ED020A27EE08
:1038A800277AC6EE877AF4EEE67AF1EE10FA11DDA1
:1038B800F0EE667A4FF07E514FF0000C027600224F
:1038C800C0ED017AC0F814C0016143768276C0ED7C
:1038D800070A7047F4EEC67AF1EE10FAEAD5F0EE70
:1038E800467AE7E7000000000268037E128807EEC8
:1038F800902AFBEEC87A1BB1B7EE007A77EE677AAA
:10390800D0ED056A90ED047A77EEE67A437E67EEAD
:10391800877A0BB1F1EE677A90ED030A90ED017AA0
:1039280077EEC07AA7EE270A80ED030A704700BF3A
:10393800837E80ED020AABB9D0ED077A27EE800AC4
:10394800F6EE007AB7EE007A20EE270AC7EE007A84
:10395800F4EEC77AF1EE10FA07DDF0EE477AC0ED23
:10396800017A7047DFED067AE8E7F5EEC07AF1EE06
:1039780010FAF4D5DFED037AC0ED017A704700BF85
:103988006F12033B0000000030B585B004460025E7
:10399800ADF80C10ADF80820ADF8043003F0AEFD1A
:1039A800BDF80C204FF48073206004F118002283C6
:1039B800BDF808206383E383A283257100F02CFD02
:1039C80004F11C0000F028FD9FED060A019904F19E
:1039D800080000F051F84FF6FF736562238405B0C4
:1039E80030BD00BF00000000F8B5044603F086FDB6
:1039F800002623682671834205D104F10800BDE83A
:103A0800F84000F053B8012794F82050206004F1E2
:103A18001800BD40277100F0DBFD6DB2284394F813
:103A28002150BD4084F8200004F11C0000F0D0FDB6
:103A380094F820306DB2666203F003032843022B2A
:103A4800C0B284F8210009D000F003000228D4D1C4
:103A5800002BD2D14FF0FF336362CEE78307CCD17E
:103A68006762CAE709884FF0000C8271C0F802C08B
:103A7800018000F0D1BC00BF70B5044682B0C1F32C
:103A88000726CDB2ADF8041003F038FD4FF480726C
:103A98004FF001232060A01DA571A280E671A360EC
:103AA80002B0BDE8704000F0B7BC00BF38B50446AE
:103AB80003F024FD002223682271834210D00122E2
:103AC800A57AE37A954020602271A01D6DB243B9B2
:103AD80000F07EFD40B22843C0B27F28A0720AD011
:103AE80038BD00F075FDB0FA80F040092843C0B237
:103AF8007F28A072F4D103F001FD07EE900AF8EEDA
:103B0800677AC4ED037A38BD82B04FF0000C032306
:103B1800ADF80410BDF8042080F810C0028043807E
:103B280002B070472DE9F04FBE4E00258FB0BE4C55
:103B3800037006F14003426007460192884620223E
:103B480029463046C4F85831C4F85461CDE90355C4
:103B5800CDE90555CDE90755CDE90955CDE90B5511
:103B68000FF0AEFC2022294604F59970C4F82151C3
:103B7800C4F82551C4F82951C4F82D510FF0A0FC00
:103B8800019B84F8385284F820317A68002A5FD083
:103B98002B464146B64604F5907599464FF0010A02
:103BA80003EB0310D1F800B0D1F804800133D1F849
:103BB80008C02218CE6844F800B0C2F80480C2F8E1
:103BC80008C0D660087C2EF8029B10740A7C05F8A1
:103BD800012F002A69D07A68113184F838A29A42F4
:103BE800DED84FF4802291489DF8043008214FF028
:103BF80000084FF00009C4F874310023C4E95702E3
:103C08000122C4F8643184F87031C4E95A2194F867
:103C18003812C4E9608981B3C4F88821002284F885
:103C2800713184F878313B78C4E96322A3B3012267
:103C380000200121013B84F89421C4E96801082B84
:103C48002CD8DFE803F0ABB0B5BABFC4C9CFD600F3
:103C58009DF804300121C4F86421C4F874314FF48C
:103C6800802384F87021714AC4E95723082300226D
:103C7800C4E95A130023C4E960230123002284F80D
:103C88007131002384F878310323C4F888313B78F4
:103C9800C4E96322002BCAD184F89431644804F043
:103CA8007DFC034638B1FFBEFEE77A6811319A42BF
:103CB8003FF676AF95E703A95D48039304F0CCFD82
:103CC8000546002868D1022240F2FF73CDE9082397
:103CD80000230422CDE90A2394F82031002B00F0B8
:103CE800D5804FF0060921E0022B00F08980012BD6
:103CF80040F0C4809AF80130012B00F0C180002BFD
:103D08004C4B18BF002306A94948CDE9063904F0F1
:103D180071F8002840F0BF80013594F82031EDB2E9
:103D2800AB4240F2B380444B53F825902FB207EBD7
:103D3800071704EB070A504600F06EFB05EB051366
:103D480023441B7C042B7DDC022B00F3918000F0C4
:103D58008D806319002283F81021E35D002BC3D105
:103D68009AF80130062B00F08580072B00F08A8036
:103D7800022B00F09680032B00F09580002B00F0BA
:103D88009680012B00F09180042B00F09280052B87
:103D98002A4B18BF0023B6E7FFBEFEE703224023E5
:103DA800C4E966237AE707226023C4E9662375E736
:103DB8000F228023C4E9662370E71F22A023C4E9E9
:103DC80066236BE73F22C023C4E9662366E77F22A8
:103DD800E023C4E9662361E7FF224FF48073C4E956
:103DE80066235BE740F2FF124FF49073C4E9662341
:103DF80054E740F2FF324FF4A073C4E966234DE75D
:103E08009AF80130042B37D0052B3DD0002B40D039
:103E1800012B42D0022B42D0032B094B18BF0023A1
:103E280071E700BF00400030409A002400200240A3
:103E38009C9B00240002B025543601080000B84FAE
:103E48000020903603233E1D04EB05084FF0000BBD
:103E5800264488F8103130460BF1010B00F0DCFAEB
:103E680098F8103104365B45F5DC76E70123EAE77C
:103E78000223E8E7104B46E7104B44E7002342E7EC
:103E88000F4B40E70F4B3EE70F4B3CE70FB0BDE849
:103E9800F08F0E4B37E7FFBEFEE70D4B33E70D4BB8
:103EA80031E70D4B2FE70D4B2DE70D4B2BE70D4B56
:103EB80029E70D4B27E700BF0800900C1000C01041
:103EC8002000F0148000501D000180210004002A09
:103ED8000008302E001060320040C03A0080F03EEA
:103EE80000005247000021430000844B38B5094CBC
:103EF80040F2FF724FF0011104F5AE75284604F048
:103F080059FC94F82021D4F854112846BDE83840CB
:103F180004F0C4B9409A0024034B0F29D3F8540184
:103F280098BF00EB41007047409A0024214B02687B
:103F38009A4200D07047204A00232048D2F8D8106F
:103F480030B51F4C41F0200183B0C4F8C0010920EE
:103F580004F5E075C4E971034FF48060C2F8D81025
:103F6800D2F8D8204FF40061C4E9733094F83802CD
:103F780002F02002C4F8D4114FF400519842019283
:103F88002846C4F8D811C4E97833019B14BF00232C
:103F98004FF48073C4F8DC3104F0B0FF08B1FFBE01
:103FA800FEE704F5AE73C4F8A851C4F8F83103B0BD
:103FB80030BD00BF002002400044025840000240CB
:103FC800409A0024014805F011BB00BF009C002462
:103FD80002682DE9F84F4B4B9A4201D0BDE8F88FA3
:103FE800494D95F83832002BF8D095F82031002B40
:103FF80077D0002405F10C0905F5997605F5907739
:10400800A04613E003F0010117F811BCA9F108005C
:1040180000F0ECFABBF1010F25D895F820310134F6
:1040280009F111090236A2B293422BD917F8012FD0
:10403800002AF4D0D5F854310021327833F814002E
:10404800D5F8583103EB041323F8120033880133F1
:104058009BB233805FFA83FA3A789A42D2D88A467A
:10406800A6F80080D0E7CAF34001A9F1040000F0E7
:10407800BDFABBF1020FCAF38001CED0484600F06A
:10408800B5FACAE7002395F8380220490922984270
:10409800C5F8C8314FF48060C5F8C011C5F8C4210F
:1040A8004FF400614FF40052C5F8CC3108BF4FF40B
:1040B8008073C5F8D821C5E9740100221448C5E900
:1040C8007732C5F8E42104F019FF08B1FFBEFEE716
:1040D80095F82021D5F854110E48BDE8F84F04F0A2
:1040E800DDB80A4909224FF48060C5F8C831C5E92E
:1040F80070124FF400614FF40052C5E97330C5E9FE
:104108007512DAE700200240409A0024400002407D
:10411800009C00249C9B0024704700BF4F4B026802
:104128009A4200D070474E4BD3F8E81030B541F0B2
:1041380000514C4C85B0D4F84821C3F8E810D3F8A6
:10414800E81001F0005101910199D3F8E01041F015
:104158000101C3F8E010D3F8E03003F00103029343
:10416800029B32F002033DD0013A012A6BD9D4F800
:104178004C31012B0AD000223620114604F0E0FB16
:10418800362005B0BDE8304004F018BCD4F84831FA
:1041980033F0020234D0013B012BECD844224023F7
:1041A8003149324DC4F88C1000212846C4F8B010AB
:1041B800C4E9242300224FF48063C4E926234FF482
:1041C80000624FF40053C4E928234FF480724FF47F
:1041D8008033C4E92A2304F091FE80B9E560C4F86D
:1041E800C440C8E74FF48062032303A8ADF80C204D
:1041F8008DF80E3000F010F9D4F84821B4E7FEE746
:104208001B4BA2634322636140231A4DC4E9062372
:1042180000224FF480632846C4E908234FF4006263
:104228004FF40053C4E90A234FF480724FF48033EB
:10423800C4E90C2304F062FE20B9D4F84831A56023
:10424800E464A8E7FEE74FF4A062032303A8ADF8EF
:104258000C208DF80E3000F0DFF888E7007400407D
:1042680000440258809C0024280402400C9D00242D
:1042780010040240949C0024014805F0B7B900BF1F
:10428800949C0024014805F0B1B900BF0C9D00249E
:1042980010B5054C204604F07DFC04F58270BDE89D
:1042A80010400BF071BA00BF809C002430B58C46DA
:1042B8003A4C3B4D8DB0046004F5A27EBCE80F007B
:1042C800AEE80F00DCF8003020462560CEF800305C
:1042D80004F002FC0023D4F84C510393C5B1162214
:1042E800012D049217D00022D4F85411D4F8483183
:1042F8009142CDE9062218BF0222059233F002024C
:1043080035D0013B012B3CD9002528460DB030BDE6
:1043180002230493E7E7234A0093C4F80C31C4F856
:104328001431C4F80421C4F81C31CDE9013303F079
:1043380055FAD4F844314BF68032C4F80851002BB2
:1043480008BF1346B0FBF3F304F58270C4F81031CC
:104358000BF084F80028D8D120230290694604F590
:10436800827000930BF0C8FA0028BCD0CDE703A9EF
:104378000A4804F043FC78B9D4F84831013B012BD2
:10438800C2D8102203A9054804F038FC051E18BF3E
:10439800012528460DB030BD0125B6E7809C0024D4
:1043A80000740040001000402DE9F0410668D6F87E
:1043B8004C5105BBD6F850310C461746002B0CBFA4
:1043C8004FF008084FF0000831F0020305D0013C17
:1043D800012C14D92846BDE8F081134629464246E7
:1043E8003046013C04F0BCFB2946304604F08AFB09
:1043F800012CEFD803E001252846BDE8F0813B46B3
:1044080042461021304604F0ABFB1021304604F040
:1044180079FB2846BDE8F0818378022B30B5044645
:104428008FB037D0032B33D0012B31D000230A9320
:10443800E378012B2AD0022B28D000230B930023EA
:1044480020460C9303F050FB0546204603F054FB2E
:1044580023780990082B13D8DFE803F01F3245585A
:104468006B7E91A40500594BD3F8E02042F480728A
:10447800C3F8E020D3F8E03003F480730893089B76
:1044880009A9284605F004FC0FB030BD0B93D6E708
:104498000A93CDE711230A93CAE74C4B09A928468A
:1044A800D3F8E02042F00102C3F8E020D3F8E0306E
:1044B80003F001030093009B05F0EAFB0FB030BD49
:1044C800424B09A92846D3F8E02042F00202C3F87B
:1044D800E020D3F8E03003F002030193019B05F0DC
:1044E800D7FB0FB030BD394B09A92846D3F8E020D7
:1044F80042F00402C3F8E020D3F8E03003F00403EC
:104508000293029B05F0C4FB0FB030BD2F4B09A9E5
:104518002846D3F8E02042F00802C3F8E020D3F898
:10452800E03003F008030393039B05F0B1FB0FB0E1
:1045380030BD264B09A92846D3F8E02042F01002E6
:10454800C3F8E020D3F8E03003F010030493049B91
:1045580005F09EFB0FB030BD1C4B09A92846D3F8C7
:10456800E02042F02002C3F8E020D3F8E03003F066
:1045780020030593059B05F08BFB0FB030BD134B53
:1045880009A92846D3F8E02042F04002C3F8E02009
:10459800D3F8E03003F040030693069B05F078FB60
:1045A8000FB030BD094B09A92846D3F8E02042F0E6
:1045B8008002C3F8E020D3F8E03003F080030793CB
:1045C800079B05F065FB0FB030BD00BF00440258E3
:1045D80038B5054603F088FA0446284603F08CFAF5
:1045E80001462046BDE8384005F05ABD70B506467C
:1045F8000D4603F079FA0446304603F07DFA2A1E88
:104608000146204618BF0122BDE8704005F04EBDA6
:104618000023122270B586B0CDE902230493036803
:10462800032B01D804230593061D841D304603F08F
:104638005BFA0546304603F05FFA034601A92846AF
:10464800019305F025FB204603F04EFA0346204669
:104658001C4603F051FA01A903462046019305F0D0
:1046680017FB06B070BD00BF634A0368934210B5DC
:104678008CB028D0614A934258D0614A934200F0E6
:104688009480604A934201D00CB010BD5E4C5F48E4
:10469800D4F8E03043F00203C4F8E030D4F8E03056
:1046A80003F002030A930A9BFFF7B2FFD4F8F43031
:1046B80043F08003C4F8F430D4F8F43003F08003F6
:1046C8000B930B9BE0E7504C5148D4F8E03043F093
:1046D8000203C4F8E030D4F8E03003F00203019399
:1046E800019BFFF795FFD4F8E83000221F2043F420
:1046F80000131146C4F8E830D4F8E83003F4001386
:104708000293029BD4F8D83043F00103C4F8D830A0
:10471800D4F8D83003F001030393039B04F010F995
:104728001F200CB0BDE8104004F048B9364C394899
:10473800D4F8E03043F08003C4F8E030D4F8E03037
:1047480003F080030493049BD4F8E03043F00203A1
:10475800C4F8E030D4F8E03003F002030593059B79
:10476800FFF756FFD4F8E8300022212043F48003F5
:104778001146C4F8E830D4F8E83003F4800306930F
:10478800069BD4F8D83043F00103C4F8D830D4F8E5
:10479800D83003F001030793079B04F0D1F82120D8
:1047A8000CB0BDE8104004F009B91B48FFF730FF12
:1047B800154B00224820D3F8E840114644F4000481
:1047C800C3F8E840D3F8E84004F400040894089CCF
:1047D800D3F8D84044F00104C3F8D840D3F8D8300F
:1047E80003F001030993099B04F0AAF848200CB0D0
:1047F800BDE8104004F0E2B8005400400058004002
:10480800005C0040001C00580044025874A00024BA
:10481800EC9D0024C49E00249C9F00242DE9F043B5
:104828001A4B87B000254FF010099E46EC46184BEE
:10483800FF22E04667461A700EF118060EF13004A2
:10484800CDE90055CDE90255ADF80090BCE80F0060
:10485800CDE90455AEE80F009CE803000095ADF8DB
:1048680000908EE80300B8E80F000FC69CE803002C
:104878000095ADF8009086E803000FCF0FC49CE8C0
:10488800030084E8030007B0BDE8F08304000024B7
:10489800E89D002410B5EFF3108472B6084B1A781F
:1048A800120602D504B962B610BD1B78D822054895
:1048B8005BB202FB0300143004F098FEF2E700BF7D
:1048C800E89D0024EC9D0024014806F087BA00BF4B
:1048D800789E0024014806F081BA00BF509F00244A
:1048E800014806F07BBA00BF28A000242DE9F04358
:1048F8000F68D8243F4D85B007FB04F4032F05EB60
:104908000403036040DCCB680E46012B3CD84DD035
:104918004FF0D808B646DFF8FC9008FB0758BEE809
:104928000F00C446ACE80F00DEF800300DF1100EA1
:10493800CCF80030D8F808C099E80F000EE90F004D
:104948000EEB8703BCF1010F53F8103CC8F88C300C
:1049580031D0BCF1020F42D0BCF1000F35D0317C10
:104968008C34D823002201202C4403FB0753490030
:10497800C3E92602C3F894102046C3E92822C3E9F4
:104988002A2206F01DF818B1012005B0BDE8F08311
:104998000146204606F02EFA0028F5D101462046A9
:1049A80006F052FA003818BF0120EEE70B7C103BE6
:1049B800672BADD9E8E702F00FFF0F4B98420CBF09
:1049C8000E4B0F4BC8F89030C9E702F005FF0A4BB1
:1049D80098420CBF0B4B0C4BC8F89030BFE702F065
:1049E800FBFE054B98420CBF084B094BC8F89030AA
:1049F800B5E700BFEC9D0024000E27072D0FB0304F
:104A08003211D0205F4390608A62E030200BA01002
:104A18001A098010983501082DE9F041D0F8008076
:104A280082B00D4617461E4608F18C04204606F053
:104A3800DDF92028FAD1D8F80C3073B96D0020467A
:104A4800089C33463A46A9B2009406F00FF800389D
:104A580018BF012002B0BDE8F081089B32463946F4
:104A6800204606F0D7F8F2E7044B10221A7483F8B0
:104A7800E82083F8C02183F898227047EC9D002431
:104A880030B5002395B04FF48071062204460B938D
:104A980006921393CDE90C13CDE90E33CDE911330A
:104AA80002F09EFE07282BD004F1100541F288324F
:104AB80006A9284606F0DAFF28B10123184684F82B
:104AC8005C3015B030BD0222022306A92846CDE984
:104AD800002310220123CDE9022300224FF4800392
:104AE800CDE9042305224FF0807306926A460F939E
:104AF80041F2883307F026F90028DED115B030BD21
:104B08000323012084F85C3015B030BD000000009C
:104B180070B50023A4B04FF080724FF4807504463E
:104B2800ADF806300D93CDE910320122CDE90E53D0
:104B3800CDE91223CDE91433002943D0F02300F145
:104B4800100508AEADF80630C02341F28832314670
:104B58002846089306F08AFF28B10123184684F8EE
:104B68005C3024B070BD41F288320DF10601284650
:104B780006F0E6FF03460028EFD105224FF48071C6
:104B88001E93284616924FF080721B9321931F9212
:104B980002AA9FED1F7BCDE91C13CDE922338DEDD1
:104BA800027B9FED1D7B41F2883316A98DED047BB6
:104BB8009FED1B7B8DED067B07F0C4F80028CCD158
:104BC80024B070BD00F1100508AE612341F28832AF
:104BD80031462846089306F049FF0028BDD141F226
:104BE80088320DF10601284607F028F80028B4D1CC
:104BF800BDF80630204623F0780343F04003ADF8B3
:104C08000630FFF73DFF00289ED0A6E7AFF30080EF
:104C1800000000000100000010000000010000007A
:104C280000000000000040002DE9F04F00234FF481
:104C3800807501264FF0807804462DED028BABB0CD
:104C48008DF8073013932193299314950E96CDF878
:104C58005C80CDE91533CDE91863CDE91A33CDE988
:104C68002253CDE92433CDE9273306231C9302F0E0
:104C7800B7FD072808D004F1100741F288321CA9B3
:104C8800384606F0F3FE40B10123184684F85C303C
:104C98002BB0BDEC028BBDE8F08F4FF0020A4FF04D
:104CA800020B4FF0050941F2883308AA1CA93846BF
:104CB800CDF89480CDF870909FED2D8BCDE908ABA1
:104CC8004FF0000A4FF4800B8DED0A8BCDE90CAB49
:104CD80007F038F80028D7D141F2883238460EA9B3
:104CE80006F0C4FE0028CFD1402341F288320DF1EE
:104CF800070138468DF8073006F022FF0028C3D197
:104D080041F288330EA902AA3846CDF83890CDF87A
:104D18005C809FED197B8DED048BCDE906AB8DEDA5
:104D2800027B07F00FF803460028ADD1CDF870904C
:104D38004FF00109CDF894804FF00008219308AA9C
:104D480029931CA938462295CDE92333CDE9273389
:104D580041F288338DED0A8BCDE90CABCDE908899A
:104D680006F0F0FF002893D0304684F85C608FE7A7
:104D7800100000000100000040000000400000009A
:104D88002DE9F043624CA3B00D46046002F028FD03
:104D9800072800F0A980286823466968AA6807C31D
:104DA8001E46AB8926F8043B3046257B677B06F018
:104DB8003FFEE0B9574B012D4FF00108E061236138
:104DC80014BF4FF480134FF40003C4E9058893FA25
:104DD800A3F3B3FA83F34FF48079013BC4F824902A
:104DE800C4E90B003046236206F0B6FD38B1012253
:104DF800134684F85C20184623B0BDE8F083662388
:104E08000B90139041F2883206A90693CDE90C90D5
:104E1800CDE90E00CDE91100304606F027FE002846
:104E2800E5D1992341F2883206A93046069306F067
:104E38001DFE0028DBD105231C9019906A461493A7
:104E48004FF08073219014A91D9341F288339FED90
:104E58002A7BCDE91A90CDE91F008DED007B9FEDEF
:104E6800287B30468DED027B9FED277B8DED047B03
:104E780006F068FF0028BAD129462046FFF748FE09
:104E88000028B4D12046FFF7CFFE03460028AED154
:104E9800002FB0D1189330460027002606AA14A97F
:104EA800CDF86890CDE91F33EB2314934FF440639A
:104EB8001B934FF4005317934FF440431C93A023C4
:104EC8001693062319934FF0805321934FF04073A4
:104ED800CDE906671D9306F0ADFF034600288AD08A
:104EE800434684F85C8086E701230322184684F849
:104EF8005C2023B0BDE8F083000000000100000042
:104F08001000000001000000000000000000400048
:104F18004CA10024005000522DE9F04F8FB0414BB6
:104F28000024026800AF9A427C63C7E90944C7E9D4
:104F38000B4403D03C37BD46BDE8F08F3A4B40F6F2
:104F480009213A48EB46D3F8D42007F11C0607F1AB
:104F5800220A4FF0020942F480424FF00308C3F8D6
:104F6800D420D3F8D42002F48042BA60BA68D3F8C7
:104F7800E02042F04002C3F8E020D3F8E02002F03D
:104F88004002FA60FA68D3F8E02042F02002C3F841
:104F9800E020D3F8E02002F020023A613A69D3F821
:104FA800E02042F01002C3F8E020D3F8E02002F03D
:104FB80010027A617A69D3F8E02042F00202C3F85D
:104FC800E020D3F8E030F86103F002033984BB61D4
:104FD800174B7B60BB697B6853F8040F7B6002F05A
:104FE80083FD7B680546186802F086FD16F8013BCC
:104FF800786207F124012846C7F830807B63C7E947
:105008000A9404F045FE5645E5D100225C2011467D
:1050180003F096FC5C2003F0D1FC3C37DD46BD462E
:10502800BDE8F08F00500052004402580A0A0909EE
:10503800A8A10024114B02689A4200D07047104A78
:1050480070B5D2F8D4300F4C23F4804304F118061D
:10505800C2F8D43054F8040F02F046FD0546206823
:1050680002F04AFD0146284604F052FFB442F1D14D
:105078005C20BDE8704003F0AFBC00BF0050005298
:1050880000440258A8A10024014806F05FBF00BFF1
:105098005CA10024084B1A1D981D03F1080110B4E7
:1050A8009C1C9A6603F10A02C3E91834C3E91B0180
:1050B8005DF8044B5A6770474CA1002438B5036863
:1050C80071B9026A00F1280500F5AC74012A0CBF19
:1050D800002140218BBB1D4B5722C0F858310DE0F1
:1050E800426A00F1C00500F5E874012A0CBF0021EE
:1050F8004021EBB1164B5A22C0F8D031002320468C
:10510800C4E901214FF480524FF480616362626107
:105118004FF48042C4E903314FF48073C4E9062395
:105128004FF40033236203F0E9FE58B1FFBEFEE7F7
:10513800084B5822C0F8D031E0E7074B5922C0F895
:105148005831DBE7C5E92044A56338BD10000240AB
:105158007000024028000240580002402DE9F04348
:10516800821D05468BB0031D05F10A010830CDE903
:10517800052305F10C02AB69CDE907010992002B63
:105188003DD0EB69B3FA83F84FEA5818012302229D
:1051980005AE0AAF4FF006090393CDE9012356F88F
:1051A800044B2B792278934216D02B68F3B1012B4C
:1051B80002D1F2B10A230493204602F09DFC034673
:1051C8002046009302F090FC694604F061FDBE425F
:1051D800E5D10BB0BDE8F083697963789942E4D1F1
:1051E800B8F1000FF3D02B68002BE0D1CDF8109068
:1051F800E2E76378022B14BF0A230823DBE74FF0AA
:105208000108C3E7534A0368934230B505468BB09B
:1052180055D02032934252D04F4A934204D0203284
:10522800934201D00BB030BD4C4C4D48D4F8E0301F
:1052380043F00103C4F8E030D4F8E03003F0010390
:105248000593059BD4F8E03043F00803C4F8E03038
:10525800D4F8E03003F008030693069BD4F8E03056
:1052680043F04003C4F8E030D4F8E03003F04003E2
:105278000793079BD4F8F03043F40003C4F8F030E8
:10528800D4F8F03003F400030893089BFFF766FF97
:10529800D4F8D830296843F001032F4A3048C4F8BD
:1052A800D830891AD4F8D83018BF012103F0010387
:1052B8000993099B0BB0BDE83040FFF7FFBE274CB0
:1052C8002848D4F8E03043F00103C4F8E030D4F8BB
:1052D800E03003F001030093009BD4F8E03043F082
:1052E8001003C4F8E030D4F8E03003F01003019361
:1052F800019BD4F8E03043F04003C4F8E030D4F820
:10530800E03003F040030293029BD4F8F03043F4FA
:105318008003C4F8F030D4F8F03003F4800303932A
:10532800039BFFF71BFFD4F8D830296843F001032B
:10533800084A0C48C4F8D830891AD4F8D83018BFAD
:10534800012103F001030493049B0BB0BDE8304036
:10535800FFF7B4BE04580140045C01400044025801
:1053680020A40024C4A10024014804F03FB900BFD0
:105378001CA30024014804F039B900BF94A30024F9
:10538800014804F033B900BF78A50024014804F0AF
:105398002DB900BFF0A500241A4A0368934210B43F
:1053A8000BD02032934208D0174A934216D02032AD
:1053B800934213D05DF8044B7047144B0022D3F886
:1053C8005442C3F85822002CF4D0D3F84802D3E949
:1053D800931223465DF8044B520818470B4B0022E2
:1053E800D3F8B044C3F8B424002CE3D0D3F8AC24E9
:1053F800D3F8A814D3F8A404520823465DF8044B44
:10540800184700BF04580140045C0140C4A10024AF
:10541800184A0368934210B40BD02032934208D044
:10542800154A934217D02032934214D05DF8044BAA
:105438007047124BD3E994245208C3F85822002C21
:10544800F4D0D3E99201234601EB820100EB8200FC
:105458005DF8044B1847094BD3F8AC24D3F8B04493
:105468005208C3F8B424002CE0D0D3F8A814D3F819
:10547800A404E8E704580140045C0140C4A10024E6
:105488002DE9F04F0C684FF41776754F87B004FB81
:1054980006F6012C07EB060AC0F800A000F3A0806E
:1054A8000D468E464FF00008D44669A3D3E9002381
:1054B80069A1D1E90001CDE9022306ABCAF85082FF
:1054C80003EB8403CDE9040153F810BC53F8083CFE
:1054D800CAE992880193BEE80F00ACE80F00BEE865
:1054E8000F00ACE80F00019B9EE80300CAF828B043
:1054F800CAF8C0308CE803002B69042B0CD8DFE80D
:1055080003F0737D879103004FF41773554A03FB2B
:1055180004739A64C3F8E020AA692B6A002A43D06E
:10552800002B4FF4177308BF022203FB047318BF44
:105538000322DA6201221A63EA696B6A002A40D1FF
:10554800191E4FF4177318BF012103FB0473C3E935
:1055580031126B69022B05D8434A12F80380434A7B
:1055680052F823904FF4177306F128004246494633
:1055780003FB04740023384463646363E365C4F87D
:10558800DC30C4F8CC30C4F8F430C4E90F33C4E9D3
:105598001533C4E93533C4E93B33022308F078FDF9
:1055A800002849D0FFBEFEE7191E4FF4177318BF35
:1055B800012103FB0473C3E90B12EA696B6A002A31
:1055C800BED0002B4FF4177308BF022203FB0473ED
:1055D80018BF0322C3F8C4200122C3F8C820B8E7C3
:1055E800012007B0BDE8F08F4FF417734FF4FA525B
:1055F80003FB04739A64C3F8E0208DE74FF4177334
:105608004FF47A5203FB04739A64C3F8E02083E7EB
:105618004FF417734FF4FA4203FB04739A64C3F808
:10562800E02079E74FF417734BF6803203FB0473DD
:105638009A64C3F8E0206FE706F1C00002234246EF
:105648004946384408F024FD0028CAD0FFBEFEE7CA
:1056580004580140045C014024580140245C014086
:10566800C4A1002400770100943601089836010887
:105678000068704770B5046882B015460E46C4F8D5
:105688005032C4E99212069AC4F85422A269012A37
:1056980026D0626A012A9AB211D0294604F1C000C4
:1056A800019208F0B1FD236A019A012B10D0294616
:1056B80004F1280008F0A8FD002002B070BD04F134
:1056C800C000019208F032FE236A019A012BEED144
:1056D800314604F1280008F029FE002002B070BD10
:1056E800226A012A9AB211D0294604F128000192AF
:1056F80008F08AFD636A019A012B10D0294604F14B
:10570800C00008F081FD002002B070BD04F128003F
:10571800019208F00BFE636A019A012BEED1314623
:1057280004F1C00008F002FE002002B070BD00BF06
:1057380003681B69042B05D8044A02EB830393ED25
:10574800000A70479FED020A704700BFA43601089F
:1057580000803B470368D3F85802704770B50023B0
:1057680004464FF4806204214FF440353448C4F8AD
:105778003821C4F8D410C4F83431C4F84C11314974
:10578800C4F8B000C4F82811C4E92F32C4E9313391
:10579800C4E93335C4E93733C4E94F33C4E9513573
:1057A800C4E95533A2680323C4F8D830C4F850318B
:1057B800042A0AD8DFE802F01F262D3403005522F8
:1057C8005623C4F8B420C4F82C310022402304F135
:1057D800B005C4F8B8202846C4F8303103F08EFB71
:1057E80008B1FFBEFEE704F59476304603F086FB69
:1057F800E8B1FFBEFEE725222623C4F8B420C4F88A
:105808002C31E2E727222823C4F8B420C4F82C312D
:10581800DBE73D223E23C4F8B420C4F82C31D4E79A
:1058280053225423C4F8B420C4F82C31CDE704F132
:105838002803C4E92865C4F8E830C4F8603170BDAD
:1058480040040240580402402DE9F04F814683B0DD
:105858000E4617461D4600F12804204609F0FAFDB9
:1058680001288246F9D14846FFF778FF804600288C
:1058780035D1EFF31083019372B6DFF888B00C9B33
:1058880099F90820DFF880A0DFF88090CBF8003085
:105898000D9B89F80020CAF800300DB11846A847BA
:1058A800BAB23146204609F04BF930B9019B03B929
:1058B80062B6404603B0BDE8F08F0023CBF8003055
:1058C800CAF80030FF2389F800300C9B8BB1012106
:1058D8000D9888469847019B002BEAD1E8E70C9B76
:1058E80053B1D0460D9851469847404603B0BDE89D
:1058F800F08F4FF00108D9E7D046404603B0BDE825
:10590800F08F00BF9CB00024A4B00024A0B00024F5
:105918002DE9F04F814683B00E4617461D4600F12B
:105928002804204609F096FD01288246F9D1484608
:10593800FFF714FF8046002835D1EFF31083019359
:1059480072B6DFF888B00C9B99F90820DFF880A0C0
:10595800DFF88090CBF800300D9B89F80020CAF85A
:1059680000300DB11846A847BAB23146204609F0B2
:10597800ABFA30B9019B03B962B6404603B0BDE843
:10598800F08F0023CBF80030CAF80030FF2389F8E5
:1059980000300C9B8BB101210D9888469847019BDC
:1059A800002BEAD1E8E70C9B53B1D0460D9851463D
:1059B8009847404603B0BDE8F08F4FF00108D9E79B
:1059C800D046404603B0BDE8F08F00BF9CB000242D
:1059D800A4B00024A0B000242DE9F04F814683B084
:1059E8000F461646984600F12804204609F032FD75
:1059F8000128FAD182464846FFF7B0FE054600283E
:105A080038D1EFF31083019372B699F90830DFF8B3
:105A18008890DFF888B089F800300D9BDFF880A007
:105A2800CBF800300E9BCAF800300C9B0BB10E98D7
:105A380098471FFA88F33A463146204609F038F964
:105A480030B9019B03B962B6284603B0BDE8F08FB0
:105A58000023CBF80030CAF80030FF2389F8003063
:105A68000D9B8BB101210E980D469847019B002B89
:105A7800EAD1E8E70D9B4BB155460E985146984739
:105A8800284603B0BDE8F08F0125DAE755462846D9
:105A980003B0BDE8F08F00BFA0B000249CB0002484
:105AA800A4B000242DE9F043002387B00222044665
:105AB80005690493CDE90223D0E902128E00FAB1F8
:105AC800022D7AD02178B5FA85F54FF00108276ABA
